:100000000C9434000C9451000C9451000C94510049
:100010000C9451000C9451000C9451000C9451001C
:100020000C9451000C9451000C9451000C9451000C
:100030000C9451000C9423010C9451000C94510029
:100040000C9451000C9451000C9451000C945100EC
:100050000C9451000C949D000C9451000C94510090
:100060000C9451000C94510011241FBECFEFD8E026
:10007000DEBFCDBF11E0A0E0B1E0E0EBF6E002C0F2
:1000800005900D92A831B107D9F721E0A8E1B1E0C0
:1000900001C01D92A232B207E1F70E9445020C9402
:1000A00056030C940000299A85E08A95F1F7000028
:1000B00029980895CF93C82F662369F1289A549AF6
:1000C000559A569A579A5F985E985D985C98C7FDC6
:1000D0005F9AC6FD5E9AC5FD5D9AC4FD5C9A0E945A
:1000E00053005F985E985D985C98C3FD5F9AC2FD6F
:1000F0005E9AC1FD5D9AC0FD5C9A0E9453005C9AB5
:100100005D9A5E9A5F9A8FE79CE00197F1F700C0D5
:100110000000CF9108952898D2CFCF93DF93EC01C0
:100120008991811103C0DF91CF91089561E00E9410
:100130005A00F6CF60E00C945A001F920F920FB64F
:100140000F9211242F933F934F935F936F937F935D
:100150008F939F93AF93BF93EF93FF93CF93DF93CF
:1001600000D000D0CDB7DEB780912101811127C02A
:1001700080917C00807F80937C0080917A008064F5
:1001800080937A0080917800909179004AE0BE01D6
:100190006F5F7F4F0E94210382E80E949A0088E0EF
:1001A00091E00E948D0082E80E949A00CE010196A3
:1001B0000E948D00809121018F5F809321018091A9
:1001C0002101813049F580917C00817F80937C0002
:1001D00080917C00816080937C0080917A008064B3
:1001E00080937A0080917800909179004AE0BE0176
:1001F0006F5F7F4F0E94210382EC0E949A0088E08B
:1002000091E00E948D0082EC0E949A00CE0101963E
:100210000E948D00109221010F900F900F900F906F
:10022000DF91CF91FF91EF91BF91AF919F918F910E
:100230007F916F915F914F913F912F910F900FBEE2
:100240000F901F9018951F920F920FB60F921124C6
:100250002F933F934F935F936F937F938F939F93CE
:10026000AF93BF93EF93FF93CF93DF93CDB7DEB7F9
:100270006E97DEBFCDBF1A8E198E81E6898382E626
:100280008A8383E68B8384E68C8385E68D8386E68A
:100290008E8387E68F8388E6888789E689878AE662
:1002A0008A878BE68B878CE68C878DE68D878EE63A
:1002B0008E878FE68F8780E7888B82E7898B83E73D
:1002C0008A8B84E78B8B85E78C8B86E78D8B87E722
:1002D0008E8B88E78F8B89E7888F8AE7898F80915B
:1002E0007A00806480937A0099B181E0292F24708C
:1002F00092FF80E08093200190911F01981741F1B7
:1003000099B192FB992790F9891309C0222339F0FA
:1003100080911E0181117BC081E080931E0180913C
:100320001E014AE0BE01655E7F4F082E000C990B4E
:100330000E9421038CE80E949A008AE091E00E94CA
:100340008D008CE80E949A00CE014B960E948D0091
:100350008091200180931F0193B181E0292F2470A7
:1003600092FF80E080931D0190911C01891749F153
:1003700093B192FB992790F989130AC0222341F087
:1003800080911B0188310CF044C08F5F80931B016A
:1003900080911B014AE0BE01655E7F4F082E000C74
:1003A000990B0E94210388EC0E949A0089E091E059
:1003B0000E948D0088EC0E949A00CE014B960E940C
:1003C0008D0080911D0180931C0188E80E949A0095
:1003D00080911B01FE01E80FF11D87FDFA9561E098
:1003E00081810E945A0093B181E0292F207194FFEE
:1003F00080E080931A0190911901891749F1222315
:1004000039F1809118011B9B07C0815006C08150B3
:1004100084CF10921B01BCCF8F5F80931801809115
:1004200018014AE0BE01655E7F4F082E000C990B53
:100430000E9421038DEC0E949A0088E091E00E94C6
:100440008D008DEC0E949A00CE014B960E948D008B
:1004500080911A01809319016E960FB6F894DEBF51
:100460000FBECDBFDF91CF91FF91EF91BF91AF91C3
:100470009F918F917F916F915F914F913F912F91BC
:100480000F900FBE0F901F901895CF93DF93CDB7AD
:10049000DEB728970FB6F894DEBF0FBECDBF209A07
:1004A000559A219A549A559A569A579A8FEF99EFDE
:1004B0000197F1F700C000005D9A5C9A0E9453001A
:1004C000EFE1FEE43197F1F700C000000E94530015
:1004D0008FEF90E00197F1F700C000000E945300F9
:1004E000EFEFF0E03197F1F700C000005C980E9458
:1004F00053008FEF90E00197F1F700C0000088E211
:100500000E949A0088E00E949A0081E00E949A006E
:1005100086E00E949A008CE00E949A0080E80E9487
:100520009A008DE091E00E948D0080EC0E949A007C
:1005300080E191E00E948D008BEC0E949A0083E1A3
:1005400091E00E948D008DEC0E949A0086E191E07E
:100550000E948D008CE80E949A0086E191E00E9442
:100560008D0088EC0E949A0086E191E00E948D0047
:1005700052985A9A22982A9A23982B9824982C9821
:1005800083B1829581708093190189B182FB88279C
:1005900080F980931F0183B182FB882780F98093C3
:1005A0001C0188E0E0E0F1E0DE01119601900D927F
:1005B0008A95E1F780E40E949A008E010F5F1F4F39
:1005C0007E0199E0E90EF11C61E0F80181918F0153
:1005D0000E945A00E016F106B9F780E80E949A00DE
:1005E0008FE80E949A0061E080E00E945A008091AA
:1005F0007C00806480937C0080917C00807F80936D
:100600007C0080917A00806880937A0080917A00E3
:10061000886080937A0080917A00876080937A0066
:10062000809181008A7F8093810080918100826027
:100630008093810080916F00816080936F00789437
:10064000FFCFBB274A3031F4992322F4BDE29095C5
:1006500081959F4F0C942D03BB27FB015527AA279B
:10066000880F991FAA1FA41710F0A41B839550513F
:10067000B9F7A05DAA3308F0A95DA193009779F7B7
:10068000B111B1931192CB010C944603DC01FC0132
:10069000672F71917723E1F7329704C07C916D93B6
:1006A00070836291AE17BF07C8F30895F894FFCF27
:1006B00000180704040404002020202000783A00D9
:0806C000793A00653A003000B0
:00000001FF
