:100000000C9434000C9451000C9451000C94530047
:100010000C9451000C9451000C9451000C9451001C
:100020000C9451000C9451000C9451000C9451000C
:100030000C9451000C9451000C9451000C945100FC
:100040000C9484000C9451000C9451000C945100B9
:100050000C9451000C9451000C9451000C945100DC
:100060000C9451000C94510011241FBECFEFD8E026
:10007000DEBFCDBF11E0A0E0B1E0EAEFF3E002C0E7
:1000800005900D92A430B107D9F721E0A4E0B1E0CA
:1000900001C01D92A730B207E1F70E94A9010C949C
:1000A000FB010C9400001F920F920FB60F921124C7
:1000B0002F933F938F939F9383B182958170809309
:1000C000060190910501981789F023B191E0322F34
:1000D000307124FF90E0891309C0332339F09091E7
:1000E0000401923074F49F5F9093040180930501A2
:1000F0009F918F913F912F910F900FBE0F901F9066
:10010000189510920401F2CF1F920F920FB60F9222
:1001100011242F938F939F93AF93BF9380910401EA
:1001200081112EC088E592E0A0E0B0E0809300014C
:1001300090930101A0930201B0930301809100010B
:1001400090910101A0910201B09103019093890067
:10015000809388008091000190910101A09102019B
:10016000B091030190938B0080938A00BF91AF916F
:100170009F918F912F910F900FBE0F901F90189508
:10018000813009F06BC08091000190910101A09134
:100190000201B091030189309740A105B10598F49F
:1001A0008091000190910101A0910201B0910301A1
:1001B0000196A11DB11D8093000190930101A093B0
:1001C0000201B09303018091000190910101A0917F
:1001D0000201B091030188309740A105B10509F0F3
:1001E000ADCF8091000190910101A0910201B091E9
:1001F00003018091000190910101A0910201B09151
:10020000030188359240A105B10508F497CF80918C
:10021000000190910101A0910201B09103010197A9
:10022000A109B1098093000190930101A0930201FB
:10023000B09303018091000190910101A09102010E
:10024000B09103010197A109B10980930001909336
:100250000101A0930201B0930301CBCF823009F0DA
:1002600085CF8091000190910101A0910201B09190
:10027000030189309740A105B10598F480910001F0
:1002800090910101A0910201B09103010296A11D7C
:10029000B11D8093000190930101A0930201B093DE
:1002A00003018091000190910101A0910201B091A0
:1002B000030188309740A105B10571F080910001DC
:1002C00090910101A0910201B09103018930974002
:1002D000A105B10508F432CF809100019091010190
:1002E000A0910201B0910301809100019091010160
:1002F000A0910201B0910301883C9105A105B105CF
:1003000008F41CCF8091000190910101A09102019D
:10031000B09103010297A109B10980930001909364
:100320000101A0930201B09303018091000190911B
:100330000101A0910201B09103010297A109B10945
:100340008093000190930101A0930201B0930301F7
:10035000CBCF85B58B7F85BD85B5836085BD80910D
:100360006E00816080936E00219A229A24982C9AC4
:1003700083B1829581708093050180918000826AAB
:1003800080938000809181008061809381008091C2
:100390008000806A8093800080E29EE490938700D2
:1003A000809386008091000190910101A09102014B
:1003B000B09103019093890080938800809100019F
:1003C00090910101A0910201B091030190938B00E3
:1003D00080938A0080918100826080938100809167
:1003E000680081608093680080916B0080618093D9
:0A03F0006B007894FFCFF894FFCF64
:0403FA0058020000A5
:00000001FF
